{
    "contractName": "Persona",
    "abi": [
        {
            "inputs": [
                {
                    "internalType": "address",
                    "name": "_registry",
                    "type": "address"
                }
            ],
            "stateMutability": "nonpayable",
            "type": "constructor"
        },
        {
            "anonymous": false,
            "inputs": [
                {
                    "indexed": true,
                    "internalType": "address",
                    "name": "previousOwner",
                    "type": "address"
                },
                {
                    "indexed": true,
                    "internalType": "address",
                    "name": "newOwner",
                    "type": "address"
                }
            ],
            "name": "OwnershipTransferred",
            "type": "event"
        },
        {
            "anonymous": false,
            "inputs": [
                {
                    "indexed": true,
                    "internalType": "address",
                    "name": "validatorAddress",
                    "type": "address"
                },
                {
                    "indexed": true,
                    "internalType": "bytes32",
                    "name": "documentType",
                    "type": "bytes32"
                },
                {
                    "indexed": false,
                    "internalType": "string[]",
                    "name": "documentLinks",
                    "type": "string[]"
                },
                {
                    "indexed": false,
                    "internalType": "string",
                    "name": "documentValue",
                    "type": "string"
                }
            ],
            "name": "personaAskToValidate",
            "type": "event"
        },
        {
            "inputs": [
                {
                    "internalType": "bytes32",
                    "name": "documentType",
                    "type": "bytes32"
                },
                {
                    "internalType": "bytes32",
                    "name": "documentValueHash",
                    "type": "bytes32"
                },
                {
                    "internalType": "bytes32[]",
                    "name": "_documentHashes",
                    "type": "bytes32[]"
                }
            ],
            "name": "addField",
            "outputs": [],
            "stateMutability": "nonpayable",
            "type": "function"
        },
        {
            "inputs": [
                {
                    "internalType": "address",
                    "name": "validatorAddress",
                    "type": "address"
                },
                {
                    "internalType": "bytes32",
                    "name": "documentType",
                    "type": "bytes32"
                },
                {
                    "internalType": "string[]",
                    "name": "documentLinks",
                    "type": "string[]"
                },
                {
                    "internalType": "string",
                    "name": "documentValue",
                    "type": "string"
                }
            ],
            "name": "askToValidate",
            "outputs": [],
            "stateMutability": "nonpayable",
            "type": "function"
        },
        {
            "inputs": [
                {
                    "internalType": "uint256",
                    "name": "",
                    "type": "uint256"
                }
            ],
            "name": "documents",
            "outputs": [
                {
                    "internalType": "bytes32",
                    "name": "",
                    "type": "bytes32"
                }
            ],
            "stateMutability": "view",
            "type": "function"
        },
        {
            "inputs": [],
            "name": "owner",
            "outputs": [
                {
                    "internalType": "address",
                    "name": "",
                    "type": "address"
                }
            ],
            "stateMutability": "view",
            "type": "function"
        },
        {
            "inputs": [
                {
                    "internalType": "bytes32",
                    "name": "documentType",
                    "type": "bytes32"
                }
            ],
            "name": "personaFieldExists",
            "outputs": [
                {
                    "internalType": "bool",
                    "name": "",
                    "type": "bool"
                }
            ],
            "stateMutability": "view",
            "type": "function"
        },
        {
            "inputs": [],
            "name": "registry",
            "outputs": [
                {
                    "internalType": "address",
                    "name": "",
                    "type": "address"
                }
            ],
            "stateMutability": "view",
            "type": "function"
        },
        {
            "inputs": [],
            "name": "renounceOwnership",
            "outputs": [],
            "stateMutability": "nonpayable",
            "type": "function"
        },
        {
            "inputs": [
                {
                    "internalType": "bytes32",
                    "name": "documentType",
                    "type": "bytes32"
                },
                {
                    "internalType": "bytes32",
                    "name": "documentValueHash",
                    "type": "bytes32"
                },
                {
                    "internalType": "bytes32[]",
                    "name": "_documentHashes",
                    "type": "bytes32[]"
                }
            ],
            "name": "replaceField",
            "outputs": [],
            "stateMutability": "nonpayable",
            "type": "function"
        },
        {
            "inputs": [
                {
                    "internalType": "address",
                    "name": "newOwner",
                    "type": "address"
                }
            ],
            "name": "transferOwnership",
            "outputs": [],
            "stateMutability": "nonpayable",
            "type": "function"
        },
        {
            "inputs": [
                {
                    "internalType": "address",
                    "name": "newOwner",
                    "type": "address"
                }
            ],
            "name": "transferOwnershipPersona",
            "outputs": [],
            "stateMutability": "nonpayable",
            "type": "function"
        },
        {
            "inputs": [
                {
                    "internalType": "bytes32",
                    "name": "documentType",
                    "type": "bytes32"
                },
                {
                    "internalType": "uint8",
                    "name": "status",
                    "type": "uint8"
                },
                {
                    "internalType": "uint256",
                    "name": "timestamp",
                    "type": "uint256"
                },
                {
                    "internalType": "string",
                    "name": "signature",
                    "type": "string"
                }
            ],
            "name": "validatorAnswer",
            "outputs": [],
            "stateMutability": "nonpayable",
            "type": "function"
        }
    ],
    "bytecode": "608060405234801561001057600080fd5b506040516111b03803806111b083398101604081905261002f916100ac565b60006100396100a8565b600080546001600160a01b0319166001600160a01b0383169081178255604051929350917f8be0079c531659141344cd1fd0a4f28419497f9722a3daafe3b4186f6b6457e0908290a350600180546001600160a01b0319166001600160a01b03929092169190911790556100da565b3390565b6000602082840312156100bd578081fd5b81516001600160a01b03811681146100d3578182fd5b9392505050565b6110c7806100e96000396000f3fe608060405234801561001057600080fd5b50600436106100a95760003560e01c80638da5cb5b116100715780638da5cb5b1461010f5780639131613d14610117578063ba70a2ca1461012a578063c2ed2b051461013d578063dfc684bd1461015d578063f2fde38b1461017d576100a9565b806302d2fdc8146100ae5780632b3cdc7b146100c3578063715018a6146100d65780637b103999146100de5780638b8b1510146100fc575b600080fd5b6100c16100bc366004610ae8565b610190565b005b6100c16100d1366004610aba565b61045c565b6100c16104bd565b6100e661053c565b6040516100f39190610d93565b60405180910390f35b6100c161010a366004610bf3565b61054b565b6100e66105e8565b6100c1610125366004610bf3565b6105f7565b6100c1610138366004610c98565b6106c0565b61015061014b366004610bdb565b61081f565b6040516100f39190610de0565b61017061016b366004610bdb565b61083d565b6040516100f39190610dd5565b6100c161018b366004610aba565b61084a565b610198610900565b6000546001600160a01b039081169116146101ce5760405162461bcd60e51b81526004016101c590610f2e565b60405180910390fd5b6101d78361083d565b6101f35760405162461bcd60e51b81526004016101c590611008565b60015460405163facd743b60e01b81526001600160a01b039091169063facd743b90610223908790600401610d93565b602060405180830381600087803b15801561023d57600080fd5b505af1158015610251573d6000803e3d6000fd5b505050506040513d601f19601f820116820180604052508101906102759190610bbb565b6102915760405162461bcd60e51b81526004016101c590610ee8565b60008381526003602081815260408084206001600160a01b038916855260040190915282205460ff16908111156102c457fe5b146102e15760405162461bcd60e51b81526004016101c590610f9a565b6000838152600360205260409081902060018101549151633a9e96d360e21b81526001600160a01b0387169263ea7a5b4c9261032a928892889260020191889190600401610de9565b600060405180830381600087803b15801561034457600080fd5b505af1158015610358573d6000803e3d6000fd5b50505060008481526003602081815260408084208084018054600180820183559187528487200180546001600160a01b0319166001600160a01b038d1690811790915583516060810185528281528086018890528451808701865288815281860152908752600490920190935293208351815494955090939092849260ff19909216919084908111156103e757fe5b021790555060208281015160018301556040830151805161040e9260028501920190610904565b5090505082846001600160a01b03167f5cedd8be1da2b9fe1bed996899397b356dc1a050f07ba0793383ad2dc898bd95848460405161044e929190610da7565b60405180910390a350505050565b610464610900565b6000546001600160a01b039081169116146104915760405162461bcd60e51b81526004016101c590610f2e565b600254156104b15760405162461bcd60e51b81526004016101c590610ea7565b6104ba8161084a565b50565b6104c5610900565b6000546001600160a01b039081169116146104f25760405162461bcd60e51b81526004016101c590610f2e565b600080546040516001600160a01b03909116907f8be0079c531659141344cd1fd0a4f28419497f9722a3daafe3b4186f6b6457e0908390a3600080546001600160a01b0319169055565b6001546001600160a01b031681565b610553610900565b6000546001600160a01b039081169116146105805760405162461bcd60e51b81526004016101c590610f2e565b600083815260036020908152604090912082516105a592600290920191840190610982565b50600083815260036020818152604080842060018101879055815185815280840192839052948890529183905292516105e29391909201916109bc565b50505050565b6000546001600160a01b031690565b6105ff610900565b6000546001600160a01b0390811691161461062c5760405162461bcd60e51b81526004016101c590610f2e565b6106358361083d565b156106525760405162461bcd60e51b81526004016101c590610fd1565b6000838152600360209081526040909120825161067792600290920191840190610982565b5050600082815260036020526040812060019081019290925560028054928301815590527f405787fa12a823e0f2b7631cc41b3ba8828b3321ca811111fa75cd3aa3bb5ace0155565b60016000858152600360205260408120600401906106dc610900565b6001600160a01b0316815260208101919091526040016000205460ff16600381111561070457fe5b146107215760405162461bcd60e51b81526004016101c590610f63565b8260ff16600381111561073057fe5b60008581526003602052604081206004019061074a610900565b6001600160a01b031681526020810191909152604001600020805460ff1916600183600381111561077757fe5b02179055506000848152600360205260408120839160049091019061079a610900565b6001600160a01b03166001600160a01b0316815260200190815260200160002060010181905550806003600086815260200190815260200160002060040160006107e2610900565b6001600160a01b03166001600160a01b031681526020019081526020016000206002019080519060200190610818929190610904565b5050505050565b6002818154811061082c57fe5b600091825260209091200154905081565b6000526003602052600190565b610852610900565b6000546001600160a01b0390811691161461087f5760405162461bcd60e51b81526004016101c590610f2e565b6001600160a01b0381166108a55760405162461bcd60e51b81526004016101c590610e61565b600080546040516001600160a01b03808516939216917f8be0079c531659141344cd1fd0a4f28419497f9722a3daafe3b4186f6b6457e091a3600080546001600160a01b0319166001600160a01b0392909216919091179055565b3390565b828054600181600116156101000203166002900490600052602060002090601f016020900481019282601f1061094557805160ff1916838001178555610972565b82800160010185558215610972579182015b82811115610972578251825591602001919060010190610957565b5061097e929150610a1d565b5090565b8280548282559060005260206000209081019282156109725791602002820182811115610972578251825591602001919060010190610957565b828054828255906000526020600020908101928215610a11579160200282015b82811115610a1157825182546001600160a01b0319166001600160a01b039091161782556020909201916001909101906109dc565b5061097e929150610a32565b5b8082111561097e5760008155600101610a1e565b5b8082111561097e5780546001600160a01b0319168155600101610a33565b600082601f830112610a61578081fd5b813567ffffffffffffffff811115610a77578182fd5b610a8a601f8201601f1916602001611035565b9150808252836020828501011115610aa157600080fd5b8060208401602084013760009082016020015292915050565b600060208284031215610acb578081fd5b81356001600160a01b0381168114610ae1578182fd5b9392505050565b60008060008060808587031215610afd578283fd5b8435610b088161107c565b93506020858101359350604086013567ffffffffffffffff80821115610b2c578485fd5b818801915088601f830112610b3f578485fd5b8135610b52610b4d8261105c565b611035565b81815284810190848601885b84811015610b8757610b758e8984358a0101610a51565b84529287019290870190600101610b5e565b509097505050506060880135925080831115610ba1578384fd5b5050610baf87828801610a51565b91505092959194509250565b600060208284031215610bcc578081fd5b81518015158114610ae1578182fd5b600060208284031215610bec578081fd5b5035919050565b600080600060608486031215610c07578283fd5b833592506020808501359250604085013567ffffffffffffffff811115610c2c578283fd5b8501601f81018713610c3c578283fd5b8035610c4a610b4d8261105c565b81815283810190838501858402850186018b1015610c66578687fd5b8694505b83851015610c88578035835260019490940193918501918501610c6a565b5080955050505050509250925092565b60008060008060808587031215610cad578384fd5b84359350602085013560ff81168114610cc4578384fd5b925060408501359150606085013567ffffffffffffffff811115610ce6578182fd5b610baf87828801610a51565b60008282518085526020808601955080818302840101818601855b84811015610d3b57601f19868403018952610d29838351610d48565b98840198925090830190600101610d0d565b5090979650505050505050565b60008151808452815b81811015610d6d57602081850181015186830182015201610d51565b81811115610d7e5782602083870101525b50601f01601f19169290920160200192915050565b6001600160a01b0391909116815260200190565b600060408252610dba6040830185610cf2565b8281036020840152610dcc8185610d48565b95945050505050565b901515815260200190565b90815260200190565b6000868252602060a081840152610e0360a0840188610cf2565b8381036040850152865480825287845282842091830190845b81811015610e3857835483526001938401939285019201610e1c565b50508481036060860152610e4c8188610d48565b93505050508260808301529695505050505050565b60208082526026908201527f4f776e61626c653a206e6577206f776e657220697320746865207a65726f206160408201526564647265737360d01b606082015260800190565b60208082526021908201527f506572736f6e61206d75737420626520656d70747920746f207472616e7366656040820152603960f91b606082015260800190565b60208082526026908201527f41646472657373206973206e6f7420726567697374657265642061732076616c60408201526534b230ba37b960d11b606082015260800190565b6020808252818101527f4f776e61626c653a2063616c6c6572206973206e6f7420746865206f776e6572604082015260600190565b60208082526018908201527f56616c69646174696f6e206e6f74207265717565737465640000000000000000604082015260600190565b6020808252601c908201527f56616c69646174696f6e20616c72656164792072657175657374656400000000604082015260600190565b60208082526017908201527f446f63756d656e7420616c726561647920616464656421000000000000000000604082015260600190565b602080825260139082015272446f63756d656e74206e6f742061646465642160681b604082015260600190565b60405181810167ffffffffffffffff8111828210171561105457600080fd5b604052919050565b600067ffffffffffffffff821115611072578081fd5b5060209081020190565b6001600160a01b03811681146104ba57600080fdfea264697066735822122069a286818ae9424475c1fb8b41162e74daa0837154c8081673a44489080c6e1a64736f6c63430007000033",
    "sourcePath": "e:/Repositories/seborga/registry/smart-contracts/contracts/Persona.sol",
    "compiler": {
        "name": "solc",
        "version": "0.7.0+commit.9e61f92b"
    },
    "functionHashes": {
        "addField(bytes32,bytes32,bytes32[])": "9131613d",
        "askToValidate(address,bytes32,string[],string)": "02d2fdc8",
        "documents(uint256)": "c2ed2b05",
        "owner()": "8da5cb5b",
        "personaFieldExists(bytes32)": "dfc684bd",
        "registry()": "7b103999",
        "renounceOwnership()": "715018a6",
        "replaceField(bytes32,bytes32,bytes32[])": "8b8b1510",
        "transferOwnership(address)": "f2fde38b",
        "transferOwnershipPersona(address)": "2b3cdc7b",
        "validatorAnswer(bytes32,uint8,uint256,string)": "ba70a2ca"
    },
    "gasEstimates": {
        "creation": {
            "codeDepositCost": "859000",
            "executionCost": "infinite",
            "totalCost": "infinite"
        },
        "external": {
            "addField(bytes32,bytes32,bytes32[])": "infinite",
            "askToValidate(address,bytes32,string[],string)": "infinite",
            "documents(uint256)": "2062",
            "owner()": "1070",
            "personaFieldExists(bytes32)": "414",
            "registry()": "1137",
            "renounceOwnership()": "24249",
            "replaceField(bytes32,bytes32,bytes32[])": "infinite",
            "transferOwnership(address)": "24514",
            "transferOwnershipPersona(address)": "infinite",
            "validatorAnswer(bytes32,uint8,uint256,string)": "infinite"
        }
    }
}