{
    "contractName": "Registry",
    "abi": [
        {
            "inputs": [
                {
                    "internalType": "address",
                    "name": "personaFactoryAddress",
                    "type": "address"
                },
                {
                    "internalType": "address",
                    "name": "validatorFactoryAddress",
                    "type": "address"
                }
            ],
            "stateMutability": "nonpayable",
            "type": "constructor"
        },
        {
            "anonymous": false,
            "inputs": [
                {
                    "indexed": true,
                    "internalType": "address",
                    "name": "previousOwner",
                    "type": "address"
                },
                {
                    "indexed": true,
                    "internalType": "address",
                    "name": "newOwner",
                    "type": "address"
                }
            ],
            "name": "OwnershipTransferred",
            "type": "event"
        },
        {
            "anonymous": false,
            "inputs": [
                {
                    "indexed": true,
                    "internalType": "bytes32",
                    "name": "role",
                    "type": "bytes32"
                },
                {
                    "indexed": true,
                    "internalType": "bytes32",
                    "name": "previousAdminRole",
                    "type": "bytes32"
                },
                {
                    "indexed": true,
                    "internalType": "bytes32",
                    "name": "newAdminRole",
                    "type": "bytes32"
                }
            ],
            "name": "RoleAdminChanged",
            "type": "event"
        },
        {
            "anonymous": false,
            "inputs": [
                {
                    "indexed": true,
                    "internalType": "bytes32",
                    "name": "role",
                    "type": "bytes32"
                },
                {
                    "indexed": true,
                    "internalType": "address",
                    "name": "account",
                    "type": "address"
                },
                {
                    "indexed": true,
                    "internalType": "address",
                    "name": "sender",
                    "type": "address"
                }
            ],
            "name": "RoleGranted",
            "type": "event"
        },
        {
            "anonymous": false,
            "inputs": [
                {
                    "indexed": true,
                    "internalType": "bytes32",
                    "name": "role",
                    "type": "bytes32"
                },
                {
                    "indexed": true,
                    "internalType": "address",
                    "name": "account",
                    "type": "address"
                },
                {
                    "indexed": true,
                    "internalType": "address",
                    "name": "sender",
                    "type": "address"
                }
            ],
            "name": "RoleRevoked",
            "type": "event"
        },
        {
            "inputs": [],
            "name": "DEFAULT_ADMIN_ROLE",
            "outputs": [
                {
                    "internalType": "bytes32",
                    "name": "",
                    "type": "bytes32"
                }
            ],
            "stateMutability": "view",
            "type": "function"
        },
        {
            "inputs": [],
            "name": "PERSONA_ROLE",
            "outputs": [
                {
                    "internalType": "bytes32",
                    "name": "",
                    "type": "bytes32"
                }
            ],
            "stateMutability": "view",
            "type": "function"
        },
        {
            "inputs": [],
            "name": "VALIDATOR_ROLE",
            "outputs": [
                {
                    "internalType": "bytes32",
                    "name": "",
                    "type": "bytes32"
                }
            ],
            "stateMutability": "view",
            "type": "function"
        },
        {
            "inputs": [
                {
                    "internalType": "bytes32",
                    "name": "role",
                    "type": "bytes32"
                }
            ],
            "name": "getRoleAdmin",
            "outputs": [
                {
                    "internalType": "bytes32",
                    "name": "",
                    "type": "bytes32"
                }
            ],
            "stateMutability": "view",
            "type": "function"
        },
        {
            "inputs": [
                {
                    "internalType": "bytes32",
                    "name": "role",
                    "type": "bytes32"
                },
                {
                    "internalType": "uint256",
                    "name": "index",
                    "type": "uint256"
                }
            ],
            "name": "getRoleMember",
            "outputs": [
                {
                    "internalType": "address",
                    "name": "",
                    "type": "address"
                }
            ],
            "stateMutability": "view",
            "type": "function"
        },
        {
            "inputs": [
                {
                    "internalType": "bytes32",
                    "name": "role",
                    "type": "bytes32"
                }
            ],
            "name": "getRoleMemberCount",
            "outputs": [
                {
                    "internalType": "uint256",
                    "name": "",
                    "type": "uint256"
                }
            ],
            "stateMutability": "view",
            "type": "function"
        },
        {
            "inputs": [
                {
                    "internalType": "bytes32",
                    "name": "role",
                    "type": "bytes32"
                },
                {
                    "internalType": "address",
                    "name": "account",
                    "type": "address"
                }
            ],
            "name": "grantRole",
            "outputs": [],
            "stateMutability": "nonpayable",
            "type": "function"
        },
        {
            "inputs": [
                {
                    "internalType": "bytes32",
                    "name": "role",
                    "type": "bytes32"
                },
                {
                    "internalType": "address",
                    "name": "account",
                    "type": "address"
                }
            ],
            "name": "hasRole",
            "outputs": [
                {
                    "internalType": "bool",
                    "name": "",
                    "type": "bool"
                }
            ],
            "stateMutability": "view",
            "type": "function"
        },
        {
            "inputs": [
                {
                    "internalType": "address",
                    "name": "addr",
                    "type": "address"
                }
            ],
            "name": "isValidator",
            "outputs": [
                {
                    "internalType": "bool",
                    "name": "",
                    "type": "bool"
                }
            ],
            "stateMutability": "view",
            "type": "function"
        },
        {
            "inputs": [],
            "name": "owner",
            "outputs": [
                {
                    "internalType": "address",
                    "name": "",
                    "type": "address"
                }
            ],
            "stateMutability": "view",
            "type": "function"
        },
        {
            "inputs": [
                {
                    "internalType": "address",
                    "name": "",
                    "type": "address"
                }
            ],
            "name": "ownerToPersona",
            "outputs": [
                {
                    "internalType": "address",
                    "name": "",
                    "type": "address"
                }
            ],
            "stateMutability": "view",
            "type": "function"
        },
        {
            "inputs": [
                {
                    "internalType": "address",
                    "name": "",
                    "type": "address"
                }
            ],
            "name": "ownerToValidator",
            "outputs": [
                {
                    "internalType": "address",
                    "name": "",
                    "type": "address"
                }
            ],
            "stateMutability": "view",
            "type": "function"
        },
        {
            "inputs": [],
            "name": "personaFactory",
            "outputs": [
                {
                    "internalType": "address",
                    "name": "",
                    "type": "address"
                }
            ],
            "stateMutability": "view",
            "type": "function"
        },
        {
            "inputs": [],
            "name": "personaRegistry",
            "outputs": [],
            "stateMutability": "nonpayable",
            "type": "function"
        },
        {
            "inputs": [],
            "name": "renounceOwnership",
            "outputs": [],
            "stateMutability": "nonpayable",
            "type": "function"
        },
        {
            "inputs": [
                {
                    "internalType": "bytes32",
                    "name": "role",
                    "type": "bytes32"
                },
                {
                    "internalType": "address",
                    "name": "account",
                    "type": "address"
                }
            ],
            "name": "renounceRole",
            "outputs": [],
            "stateMutability": "nonpayable",
            "type": "function"
        },
        {
            "inputs": [
                {
                    "internalType": "bytes32",
                    "name": "role",
                    "type": "bytes32"
                },
                {
                    "internalType": "address",
                    "name": "account",
                    "type": "address"
                }
            ],
            "name": "revokeRole",
            "outputs": [],
            "stateMutability": "nonpayable",
            "type": "function"
        },
        {
            "inputs": [
                {
                    "internalType": "address",
                    "name": "newOwner",
                    "type": "address"
                }
            ],
            "name": "transferOwnership",
            "outputs": [],
            "stateMutability": "nonpayable",
            "type": "function"
        },
        {
            "inputs": [
                {
                    "internalType": "address",
                    "name": "personaFactoryAddress",
                    "type": "address"
                },
                {
                    "internalType": "address",
                    "name": "validatorFactoryAddress",
                    "type": "address"
                }
            ],
            "name": "updateFactoryAddresses",
            "outputs": [],
            "stateMutability": "nonpayable",
            "type": "function"
        },
        {
            "inputs": [],
            "name": "validatorFactory",
            "outputs": [
                {
                    "internalType": "address",
                    "name": "",
                    "type": "address"
                }
            ],
            "stateMutability": "view",
            "type": "function"
        },
        {
            "inputs": [],
            "name": "validatorRegistry",
            "outputs": [],
            "stateMutability": "nonpayable",
            "type": "function"
        }
    ],
    "bytecode": "60806040523480156200001157600080fd5b506040516200127738038062001277833981810160405260408110156200003757600080fd5b50805160209091015160006200004c620000de565b600080546001600160a01b0319166001600160a01b0383169081178255604051929350917f8be0079c531659141344cd1fd0a4f28419497f9722a3daafe3b4186f6b6457e0908290a350620000ac6000620000a6620000de565b620000e2565b600280546001600160a01b039384166001600160a01b03199182161790915560038054929093169116179055620001f4565b3390565b620000ee8282620000f2565b5050565b600082815260016020908152604090912062000119918390620008c96200016d821b17901c565b15620000ee5762000129620000de565b6001600160a01b0316816001600160a01b0316837f2f8788117e7eff1d82e926ec794901d17c78024a50270940304540a733656f0d60405160405180910390a45050565b600062000184836001600160a01b0384166200018d565b90505b92915050565b60006200019b8383620001dc565b620001d35750815460018181018455600084815260208082209093018490558454848252828601909352604090209190915562000187565b50600062000187565b60009081526001919091016020526040902054151590565b61107380620002046000396000f3fe608060405234801561001057600080fd5b50600436106101375760003560e01c8063a217fddf116100b8578063cac96e1c1161007c578063cac96e1c146102ed578063d547741f14610313578063d7368fd61461033f578063f2fde38b14610347578063f376ebbb1461036d578063facd743b1461037557610137565b8063a217fddf1461028a578063a94ed63a14610292578063abfb5c8e146102c0578063c49baebe146102c8578063ca15c873146102d057610137565b8063717a054b116100ff578063717a054b146101d557806383dbb7aa146102175780638da5cb5b1461021f5780639010d07c1461022757806391d148541461024a57610137565b80631527edcb1461013c578063248a9ca3146101565780632f2ff15d1461017357806336568abe146101a1578063715018a6146101cd575b600080fd5b61014461039b565b60408051918252519081900360200190f35b6101446004803603602081101561016c57600080fd5b50356103bf565b61019f6004803603604081101561018957600080fd5b50803590602001356001600160a01b03166103d4565b005b61019f600480360360408110156101b757600080fd5b50803590602001356001600160a01b0316610440565b61019f6104a1565b6101fb600480360360208110156101eb57600080fd5b50356001600160a01b0316610555565b604080516001600160a01b039092168252519081900360200190f35b61019f610570565b6101fb610583565b6101fb6004803603604081101561023d57600080fd5b5080359060200135610592565b6102766004803603604081101561026057600080fd5b50803590602001356001600160a01b03166105b3565b604080519115158252519081900360200190f35b6101446105cb565b61019f600480360360408110156102a857600080fd5b506001600160a01b03813581169160200135166105d0565b6101fb6106b6565b6101446106c5565b610144600480360360208110156102e657600080fd5b50356106e9565b6101fb6004803603602081101561030357600080fd5b50356001600160a01b0316610700565b61019f6004803603604081101561032957600080fd5b50803590602001356001600160a01b031661071b565b6101fb610774565b61019f6004803603602081101561035d57600080fd5b50356001600160a01b0316610783565b61019f61088d565b6102766004803603602081101561038b57600080fd5b50356001600160a01b031661089d565b7f55c39d4d40a4594445187326376de979b5d54d2cf247bc596c9f448e71c0d05781565b60009081526001602052604090206002015490565b6000828152600160205260409020600201546103f7906103f26108de565b6105b3565b6104325760405162461bcd60e51b815260040180806020018281038252602f815260200180610f19602f913960400191505060405180910390fd5b61043c82826108e2565b5050565b6104486108de565b6001600160a01b0316816001600160a01b0316146104975760405162461bcd60e51b815260040180806020018281038252602f81526020018061100f602f913960400191505060405180910390fd5b61043c828261094b565b6104a96108de565b6000546001600160a01b0390811691161461050b576040805162461bcd60e51b815260206004820181905260248201527f4f776e61626c653a2063616c6c6572206973206e6f7420746865206f776e6572604482015290519081900360640190fd5b600080546040516001600160a01b03909116907f8be0079c531659141344cd1fd0a4f28419497f9722a3daafe3b4186f6b6457e0908390a3600080546001600160a01b0319169055565b6005602052600090815260409020546001600160a01b031681565b61058061057b6108de565b6109b4565b50565b6000546001600160a01b031690565b60008281526001602052604081206105aa9083610b3b565b90505b92915050565b60008281526001602052604081206105aa9083610b47565b600081565b6105d86108de565b6000546001600160a01b0390811691161461063a576040805162461bcd60e51b815260206004820181905260248201527f4f776e61626c653a2063616c6c6572206973206e6f7420746865206f776e6572604482015290519081900360640190fd5b6001600160a01b0382161561064f578161065c565b6002546001600160a01b03165b600280546001600160a01b0319166001600160a01b039283161790558116156106855780610692565b6003546001600160a01b03165b600380546001600160a01b0319166001600160a01b03929092169190911790555050565b6002546001600160a01b031681565b7f21702c8af46127c7fa207f89d0b0a8441bb32959a0ac7df790e9ab1a25c9892681565b60008181526001602052604081206105ad90610b5c565b6004602052600090815260409020546001600160a01b031681565b600082815260016020526040902060020154610739906103f26108de565b6104975760405162461bcd60e51b8152600401808060200182810382526030815260200180610f946030913960400191505060405180910390fd5b6003546001600160a01b031681565b61078b6108de565b6000546001600160a01b039081169116146107ed576040805162461bcd60e51b815260206004820181905260248201527f4f776e61626c653a2063616c6c6572206973206e6f7420746865206f776e6572604482015290519081900360640190fd5b6001600160a01b0381166108325760405162461bcd60e51b8152600401808060200182810382526026815260200180610f486026913960400191505060405180910390fd5b600080546040516001600160a01b03808516939216917f8be0079c531659141344cd1fd0a4f28419497f9722a3daafe3b4186f6b6457e091a3600080546001600160a01b0319166001600160a01b0392909216919091179055565b6105806108986108de565b610b67565b60006105ad7f21702c8af46127c7fa207f89d0b0a8441bb32959a0ac7df790e9ab1a25c98926836105b3565b60006105aa836001600160a01b038416610d51565b3390565b60008281526001602052604090206108fa90826108c9565b1561043c576109076108de565b6001600160a01b0316816001600160a01b0316837f2f8788117e7eff1d82e926ec794901d17c78024a50270940304540a733656f0d60405160405180910390a45050565b60008281526001602052604090206109639082610d9b565b1561043c576109706108de565b6001600160a01b0316816001600160a01b0316837ff6391f5c32d9c69d2a47ea670b442974b53935d1edc7fd64eb21e047a839171b60405160405180910390a45050565b6001600160a01b0381811660009081526004602052604081205490911615610a0d5760405162461bcd60e51b8152600401808060200182810382526024815260200180610feb6024913960400191505060405180910390fd5b60025460408051633297c15360e01b81526001600160a01b03858116600483015291516000939290921691633297c1539160248082019260209290919082900301818787803b158015610a5f57600080fd5b505af1158015610a73573d6000803e3d6000fd5b505050506040513d6020811015610a8957600080fd5b50516001600160a01b03848116600081815260046020819052604080832080546001600160a01b0319169587169586179055805163f2fde38b60e01b8152918201939093529151939450919263f2fde38b9260248084019391929182900301818387803b158015610af957600080fd5b505af1158015610b0d573d6000803e3d6000fd5b505050506105ad7f55c39d4d40a4594445187326376de979b5d54d2cf247bc596c9f448e71c0d05782610432565b60006105aa8383610db0565b60006105aa836001600160a01b038416610e14565b60006105ad82610e2c565b6001600160a01b0381811660009081526005602052604081205490911615610bc05760405162461bcd60e51b8152600401808060200182810382526026815260200180610f6e6026913960400191505060405180910390fd5b610bea7f55c39d4d40a4594445187326376de979b5d54d2cf247bc596c9f448e71c0d057836105b3565b610c255760405162461bcd60e51b8152600401808060200182810382526027815260200180610fc46027913960400191505060405180910390fd5b60035460408051630197047360e21b81526001600160a01b0385811660048301529151600093929092169163065c11cc9160248082019260209290919082900301818787803b158015610c7757600080fd5b505af1158015610c8b573d6000803e3d6000fd5b505050506040513d6020811015610ca157600080fd5b50516001600160a01b0384811660008181526005602052604080822080546001600160a01b0319169486169485179055805163322ccfd560e11b815260048101939093525193945091926364599faa9260248084019391929182900301818387803b158015610d0f57600080fd5b505af1158015610d23573d6000803e3d6000fd5b505050506105ad7f21702c8af46127c7fa207f89d0b0a8441bb32959a0ac7df790e9ab1a25c9892684610432565b6000610d5d8383610e14565b610d93575081546001818101845560008481526020808220909301849055845484825282860190935260409020919091556105ad565b5060006105ad565b60006105aa836001600160a01b038416610e30565b81546000908210610df25760405162461bcd60e51b8152600401808060200182810382526022815260200180610ef76022913960400191505060405180910390fd5b826000018281548110610e0157fe5b9060005260206000200154905092915050565b60009081526001919091016020526040902054151590565b5490565b60008181526001830160205260408120548015610eec5783546000198083019190810190600090879083908110610e6357fe5b9060005260206000200154905080876000018481548110610e8057fe5b600091825260208083209091019290925582815260018981019092526040902090840190558654879080610eb057fe5b600190038181906000526020600020016000905590558660010160008781526020019081526020016000206000905560019450505050506105ad565b60009150506105ad56fe456e756d657261626c655365743a20696e646578206f7574206f6620626f756e6473416363657373436f6e74726f6c3a2073656e646572206d75737420626520616e2061646d696e20746f206772616e744f776e61626c653a206e6577206f776e657220697320746865207a65726f206164647265737352656769737472793a2076616c696461746f7220616c72656164792072656769737465726564416363657373436f6e74726f6c3a2073656e646572206d75737420626520616e2061646d696e20746f207265766f6b6556616c696461746f72206d75737420746f206265206120706572736f6e6120726567697374727952656769737472793a20706572736f6e6120616c72656164792072656769737465726564416363657373436f6e74726f6c3a2063616e206f6e6c792072656e6f756e636520726f6c657320666f722073656c66a2646970667358221220cdd8a411aa6270a94d8e306b38254e703c8de013038ccec263058e549499825c64736f6c63430007000033",
    "sourcePath": "e:/Repositories/seborga/registry/smart-contracts/contracts/Registry.sol",
    "compiler": {
        "name": "solc",
        "version": "0.7.0+commit.9e61f92b"
    },
    "functionHashes": {
        "DEFAULT_ADMIN_ROLE()": "a217fddf",
        "PERSONA_ROLE()": "1527edcb",
        "VALIDATOR_ROLE()": "c49baebe",
        "getRoleAdmin(bytes32)": "248a9ca3",
        "getRoleMember(bytes32,uint256)": "9010d07c",
        "getRoleMemberCount(bytes32)": "ca15c873",
        "grantRole(bytes32,address)": "2f2ff15d",
        "hasRole(bytes32,address)": "91d14854",
        "isValidator(address)": "facd743b",
        "owner()": "8da5cb5b",
        "ownerToPersona(address)": "cac96e1c",
        "ownerToValidator(address)": "717a054b",
        "personaFactory()": "abfb5c8e",
        "personaRegistry()": "83dbb7aa",
        "renounceOwnership()": "715018a6",
        "renounceRole(bytes32,address)": "36568abe",
        "revokeRole(bytes32,address)": "d547741f",
        "transferOwnership(address)": "f2fde38b",
        "updateFactoryAddresses(address,address)": "a94ed63a",
        "validatorFactory()": "d7368fd6",
        "validatorRegistry()": "f376ebbb"
    },
    "gasEstimates": {
        "creation": {
            "codeDepositCost": "842200",
            "executionCost": "infinite",
            "totalCost": "infinite"
        },
        "external": {
            "DEFAULT_ADMIN_ROLE()": "221",
            "PERSONA_ROLE()": "222",
            "VALIDATOR_ROLE()": "287",
            "getRoleAdmin(bytes32)": "1158",
            "getRoleMember(bytes32,uint256)": "infinite",
            "getRoleMemberCount(bytes32)": "infinite",
            "grantRole(bytes32,address)": "infinite",
            "hasRole(bytes32,address)": "infinite",
            "isValidator(address)": "infinite",
            "owner()": "1104",
            "ownerToPersona(address)": "1185",
            "ownerToValidator(address)": "1186",
            "personaFactory()": "1104",
            "personaRegistry()": "infinite",
            "renounceOwnership()": "24316",
            "renounceRole(bytes32,address)": "infinite",
            "revokeRole(bytes32,address)": "infinite",
            "transferOwnership(address)": "infinite",
            "updateFactoryAddresses(address,address)": "44584",
            "validatorFactory()": "1103",
            "validatorRegistry()": "infinite"
        },
        "internal": {
            "newPersona(address)": "infinite",
            "newValidator(address)": "infinite"
        }
    }
}