{
    "contractName": "Validator",
    "abi": [
        {
            "inputs": [
                {
                    "internalType": "address",
                    "name": "_registry",
                    "type": "address"
                }
            ],
            "stateMutability": "nonpayable",
            "type": "constructor"
        },
        {
            "anonymous": false,
            "inputs": [
                {
                    "indexed": true,
                    "internalType": "address",
                    "name": "previousOwner",
                    "type": "address"
                },
                {
                    "indexed": true,
                    "internalType": "address",
                    "name": "newOwner",
                    "type": "address"
                }
            ],
            "name": "OwnershipTransferred",
            "type": "event"
        },
        {
            "inputs": [
                {
                    "internalType": "bytes32",
                    "name": "documentType",
                    "type": "bytes32"
                }
            ],
            "name": "addDocumentType",
            "outputs": [],
            "stateMutability": "nonpayable",
            "type": "function"
        },
        {
            "inputs": [
                {
                    "internalType": "bytes32[]",
                    "name": "_documentTypes",
                    "type": "bytes32[]"
                }
            ],
            "name": "addDocumentTypes",
            "outputs": [],
            "stateMutability": "nonpayable",
            "type": "function"
        },
        {
            "inputs": [
                {
                    "internalType": "bytes32",
                    "name": "documentType",
                    "type": "bytes32"
                },
                {
                    "internalType": "string[]",
                    "name": "documentLinks",
                    "type": "string[]"
                },
                {
                    "internalType": "bytes32[]",
                    "name": "documentHashes",
                    "type": "bytes32[]"
                },
                {
                    "internalType": "string",
                    "name": "documentValue",
                    "type": "string"
                },
                {
                    "internalType": "bytes32",
                    "name": "documentValueHash",
                    "type": "bytes32"
                }
            ],
            "name": "askValidation",
            "outputs": [],
            "stateMutability": "nonpayable",
            "type": "function"
        },
        {
            "inputs": [
                {
                    "internalType": "bytes32",
                    "name": "",
                    "type": "bytes32"
                }
            ],
            "name": "documentPrices",
            "outputs": [
                {
                    "internalType": "uint256",
                    "name": "",
                    "type": "uint256"
                }
            ],
            "stateMutability": "view",
            "type": "function"
        },
        {
            "inputs": [
                {
                    "internalType": "bytes32",
                    "name": "",
                    "type": "bytes32"
                }
            ],
            "name": "documentTypes",
            "outputs": [
                {
                    "internalType": "bool",
                    "name": "",
                    "type": "bool"
                }
            ],
            "stateMutability": "view",
            "type": "function"
        },
        {
            "inputs": [],
            "name": "owner",
            "outputs": [
                {
                    "internalType": "address",
                    "name": "",
                    "type": "address"
                }
            ],
            "stateMutability": "view",
            "type": "function"
        },
        {
            "inputs": [],
            "name": "paymentToken",
            "outputs": [
                {
                    "internalType": "address",
                    "name": "",
                    "type": "address"
                }
            ],
            "stateMutability": "view",
            "type": "function"
        },
        {
            "inputs": [
                {
                    "internalType": "uint8",
                    "name": "status",
                    "type": "uint8"
                },
                {
                    "internalType": "string",
                    "name": "signature",
                    "type": "string"
                }
            ],
            "name": "processValidation",
            "outputs": [],
            "stateMutability": "nonpayable",
            "type": "function"
        },
        {
            "inputs": [],
            "name": "registry",
            "outputs": [
                {
                    "internalType": "address",
                    "name": "",
                    "type": "address"
                }
            ],
            "stateMutability": "view",
            "type": "function"
        },
        {
            "inputs": [
                {
                    "internalType": "bytes32",
                    "name": "documentType",
                    "type": "bytes32"
                }
            ],
            "name": "removeDocumentType",
            "outputs": [],
            "stateMutability": "nonpayable",
            "type": "function"
        },
        {
            "inputs": [
                {
                    "internalType": "bytes32[]",
                    "name": "_documentTypes",
                    "type": "bytes32[]"
                }
            ],
            "name": "removeDocumentTypes",
            "outputs": [],
            "stateMutability": "nonpayable",
            "type": "function"
        },
        {
            "inputs": [],
            "name": "renounceOwnership",
            "outputs": [],
            "stateMutability": "nonpayable",
            "type": "function"
        },
        {
            "inputs": [
                {
                    "internalType": "bytes32",
                    "name": "documentType",
                    "type": "bytes32"
                },
                {
                    "internalType": "uint256",
                    "name": "documentPrice",
                    "type": "uint256"
                }
            ],
            "name": "setDocumentPrice",
            "outputs": [],
            "stateMutability": "nonpayable",
            "type": "function"
        },
        {
            "inputs": [
                {
                    "internalType": "bytes32[]",
                    "name": "_documentTypes",
                    "type": "bytes32[]"
                },
                {
                    "internalType": "uint256[]",
                    "name": "_documentPrices",
                    "type": "uint256[]"
                }
            ],
            "name": "setDocumentPrices",
            "outputs": [],
            "stateMutability": "nonpayable",
            "type": "function"
        },
        {
            "inputs": [
                {
                    "internalType": "address",
                    "name": "token",
                    "type": "address"
                }
            ],
            "name": "setPaymentToken",
            "outputs": [],
            "stateMutability": "nonpayable",
            "type": "function"
        },
        {
            "inputs": [
                {
                    "internalType": "address",
                    "name": "newOwner",
                    "type": "address"
                }
            ],
            "name": "transferOwnership",
            "outputs": [],
            "stateMutability": "nonpayable",
            "type": "function"
        },
        {
            "inputs": [
                {
                    "internalType": "address",
                    "name": "newOwner",
                    "type": "address"
                }
            ],
            "name": "transferOwnershipValidator",
            "outputs": [],
            "stateMutability": "nonpayable",
            "type": "function"
        },
        {
            "inputs": [
                {
                    "internalType": "uint256",
                    "name": "",
                    "type": "uint256"
                }
            ],
            "name": "validationQueue",
            "outputs": [
                {
                    "internalType": "address",
                    "name": "persona",
                    "type": "address"
                },
                {
                    "internalType": "bytes32",
                    "name": "documentType",
                    "type": "bytes32"
                },
                {
                    "internalType": "string",
                    "name": "documentValue",
                    "type": "string"
                },
                {
                    "internalType": "bytes32",
                    "name": "documentValueHash",
                    "type": "bytes32"
                }
            ],
            "stateMutability": "view",
            "type": "function"
        },
        {
            "inputs": [],
            "name": "validationQueueEnd",
            "outputs": [
                {
                    "internalType": "uint256",
                    "name": "",
                    "type": "uint256"
                }
            ],
            "stateMutability": "view",
            "type": "function"
        },
        {
            "inputs": [],
            "name": "validationQueueStart",
            "outputs": [
                {
                    "internalType": "uint256",
                    "name": "",
                    "type": "uint256"
                }
            ],
            "stateMutability": "view",
            "type": "function"
        }
    ],
    "bytecode": "608060405234801561001057600080fd5b5060405161157b38038061157b83398101604081905261002f916100b4565b60006100396100b0565b600080546001600160a01b0319166001600160a01b0383169081178255604051929350917f8be0079c531659141344cd1fd0a4f28419497f9722a3daafe3b4186f6b6457e0908290a350600180546001600160a01b0319166001600160a01b039290921691909117815560065560006007556100e2565b3390565b6000602082840312156100c5578081fd5b81516001600160a01b03811681146100db578182fd5b9392505050565b61148a806100f16000396000f3fe608060405234801561001057600080fd5b506004361061012c5760003560e01c80638da5cb5b116100ad578063e5f760b911610071578063e5f760b91461024e578063e75984b714610261578063ea7a5b4c14610274578063f2ca8d1714610287578063f2fde38b1461029a5761012c565b80638da5cb5b146102055780639b067cd61461020d578063abe9e9e714610220578063aea60cb614610228578063d0a2711b1461023b5761012c565b80636c3cdfdc116100f45780636c3cdfdc146101aa578063715018a6146101cd57806374e87688146101d55780637b103999146101e85780638103229b146101f05761012c565b806308ac7eca146101315780633013ce2914610146578063445d1ce11461016457806364599faa146101845780636a326ab114610197575b600080fd5b61014461013f366004610e5f565b6102ad565b005b61014e61031f565b60405161015b919061112e565b60405180910390f35b610177610172366004610f73565b61032e565b60405161015b919061119e565b610144610192366004610e38565b610343565b6101446101a5366004610e38565b610372565b6101bd6101b8366004610f73565b6103c9565b60405161015b9493929190611166565b610144610488565b6101446101e3366004610e9a565b610507565b61014e610585565b6101f8610594565b60405161015b91906113d4565b61014e61059a565b61014461021b366004610f73565b6105a9565b6101f86105f6565b610144610236366004610e5f565b6105fc565b610144610249366004610f73565b610661565b6101f861025c366004610f73565b6106b1565b61014461026f366004611072565b6106c3565b610144610282366004610f8b565b61070a565b610144610295366004611093565b6108ec565b6101446102a8366004610e38565b6109b5565b6102b5610a6b565b6000546001600160a01b039081169116146102eb5760405162461bcd60e51b81526004016102e29061129e565b60405180910390fd5b60005b815181101561031b5761031382828151811061030657fe5b60200260200101516105a9565b6001016102ee565b5050565b6002546001600160a01b031681565b60036020526000908152604090205460ff1681565b600754600654116103665760405162461bcd60e51b81526004016102e29061139f565b61036f816109b5565b50565b61037a610a6b565b6000546001600160a01b039081169116146103a75760405162461bcd60e51b81526004016102e29061129e565b600280546001600160a01b0319166001600160a01b0392909216919091179055565b60056020908152600091825260409182902080546001808301546004840180548751600261010095831615959095026000190190911693909304601f81018790048702840187019097528683526001600160a01b039093169590949192918301828280156104785780601f1061044d57610100808354040283529160200191610478565b820191906000526020600020905b81548152906001019060200180831161045b57829003601f168201915b5050505050908060050154905084565b610490610a6b565b6000546001600160a01b039081169116146104bd5760405162461bcd60e51b81526004016102e29061129e565b600080546040516001600160a01b03909116907f8be0079c531659141344cd1fd0a4f28419497f9722a3daafe3b4186f6b6457e0908390a3600080546001600160a01b0319169055565b61050f610a6b565b6000546001600160a01b0390811691161461053c5760405162461bcd60e51b81526004016102e29061129e565b60005b82518110156105805761057883828151811061055757fe5b602002602001015183838151811061056b57fe5b60200260200101516106c3565b60010161053f565b505050565b6001546001600160a01b031681565b60065481565b6000546001600160a01b031690565b6105b1610a6b565b6000546001600160a01b039081169116146105de5760405162461bcd60e51b81526004016102e29061129e565b6000908152600360205260409020805460ff19169055565b60075481565b610604610a6b565b6000546001600160a01b039081169116146106315760405162461bcd60e51b81526004016102e29061129e565b60005b815181101561031b5761065982828151811061064c57fe5b6020026020010151610661565b600101610634565b610669610a6b565b6000546001600160a01b039081169116146106965760405162461bcd60e51b81526004016102e29061129e565b6000908152600360205260409020805460ff19166001179055565b60046020526000908152604090205481565b6106cb610a6b565b6000546001600160a01b039081169116146106f85760405162461bcd60e51b81526004016102e29061129e565b60009182526004602052604090912055565b6001546001600160a01b0316630ce341b1610723610a6b565b6040518263ffffffff1660e01b815260040161073f919061112e565b602060405180830381600087803b15801561075957600080fd5b505af115801561076d573d6000803e3d6000fd5b505050506040513d601f19601f820116820180604052508101906107919190610f53565b6107ad5760405162461bcd60e51b81526004016102e290611258565b60008581526003602052604090205460ff166107db5760405162461bcd60e51b81526004016102e2906112d3565b600085815260046020526040902054156108075760008581526004602052604090205461080790610a6f565b600754610815906001610abd565b600755610820610a6b565b60078054600090815260056020908152604080832080546001600160a01b0319166001600160a01b039690961695909517909455825482528382206001018990559154815291909120855161087d92600290920191870190610bda565b50600754600090815260056020908152604090912084516108a692600390920191860190610c37565b50600754600090815260056020908152604090912083516108cf92600490920191850190610c7e565b506007546000908152600560208190526040909120015550505050565b6108f4610a6b565b6000546001600160a01b039081169116146109215760405162461bcd60e51b81526004016102e29061129e565b6006546000908152600560205260409081902080546001909101549151635d38516560e11b81526001600160a01b039091169163ba70a2ca9161096d91908690429087906004016111a9565b600060405180830381600087803b15801561098757600080fd5b505af115801561099b573d6000803e3d6000fd5b50506006546109ae925090506001610abd565b6006555050565b6109bd610a6b565b6000546001600160a01b039081169116146109ea5760405162461bcd60e51b81526004016102e29061129e565b6001600160a01b038116610a105760405162461bcd60e51b81526004016102e2906111db565b600080546040516001600160a01b03808516939216917f8be0079c531659141344cd1fd0a4f28419497f9722a3daafe3b4186f6b6457e091a3600080546001600160a01b0319166001600160a01b0392909216919091179055565b3390565b6002546001600160a01b0316610a975760405162461bcd60e51b81526004016102e290611368565b60025461036f906001600160a01b0316610aaf610a6b565b610ab761059a565b84610ae9565b600082820183811015610ae25760405162461bcd60e51b81526004016102e290611221565b9392505050565b60006060856001600160a01b03166323b872dd868686604051602401610b1193929190611142565b6040516020818303038152906040529060e01b6020820180516001600160e01b038381831617835250505050604051610b4a9190611112565b6000604051808303816000865af19150503d8060008114610b87576040519150601f19603f3d011682016040523d82523d6000602084013e610b8c565b606091505b5091509150818015610bb6575080511580610bb6575080806020019051810190610bb69190610f53565b610bd25760405162461bcd60e51b81526004016102e290611324565b505050505050565b828054828255906000526020600020908101928215610c27579160200282015b82811115610c275782518051610c17918491602090910190610c7e565b5091602001919060010190610bfa565b50610c33929150610ceb565b5090565b828054828255906000526020600020908101928215610c72579160200282015b82811115610c72578251825591602001919060010190610c57565b50610c33929150610d08565b828054600181600116156101000203166002900490600052602060002090601f016020900481019282601f10610cbf57805160ff1916838001178555610c72565b82800160010185558215610c725791820182811115610c72578251825591602001919060010190610c57565b80821115610c33576000610cff8282610d1d565b50600101610ceb565b5b80821115610c335760008155600101610d09565b50805460018160011615610100020316600290046000825580601f10610d43575061036f565b601f01602090049060005260206000209081019061036f9190610d08565b600082601f830112610d71578081fd5b8135610d84610d7f82611404565b6113dd565b818152915060208083019084810181840286018201871015610da557600080fd5b60005b84811015610dc457813584529282019290820190600101610da8565b505050505092915050565b600082601f830112610ddf578081fd5b813567ffffffffffffffff811115610df5578182fd5b610e08601f8201601f19166020016113dd565b9150808252836020828501011115610e1f57600080fd5b8060208401602084013760009082016020015292915050565b600060208284031215610e49578081fd5b81356001600160a01b0381168114610ae2578182fd5b600060208284031215610e70578081fd5b813567ffffffffffffffff811115610e86578182fd5b610e9284828501610d61565b949350505050565b60008060408385031215610eac578081fd5b823567ffffffffffffffff80821115610ec3578283fd5b610ecf86838701610d61565b9350602091508185013581811115610ee5578384fd5b85019050601f81018613610ef7578283fd5b8035610f05610d7f82611404565b81815283810190838501858402850186018a1015610f21578687fd5b8694505b83851015610f43578035835260019490940193918501918501610f25565b5080955050505050509250929050565b600060208284031215610f64578081fd5b81518015158114610ae2578182fd5b600060208284031215610f84578081fd5b5035919050565b600080600080600060a08688031215610fa2578081fd5b8535945060208087013567ffffffffffffffff80821115610fc1578384fd5b818901915089601f830112610fd4578384fd5b8135610fe2610d7f82611404565b81815284810190848601875b84811015611017576110058f8984358a0101610dcf565b84529287019290870190600101610fee565b509099505050506040890135925080831115611031578384fd5b61103d8a848b01610d61565b95506060890135925080831115611052578384fd5b505061106088828901610dcf565b95989497509295608001359392505050565b60008060408385031215611084578182fd5b50508035926020909101359150565b600080604083850312156110a5578182fd5b823560ff811681146110b5578283fd5b9150602083013567ffffffffffffffff8111156110d0578182fd5b6110dc85828601610dcf565b9150509250929050565b600081518084526110fe816020860160208601611424565b601f01601f19169290920160200192915050565b60008251611124818460208701611424565b9190910192915050565b6001600160a01b0391909116815260200190565b6001600160a01b039384168152919092166020820152604081019190915260600190565b600060018060a01b03861682528460208301526080604083015261118d60808301856110e6565b905082606083015295945050505050565b901515815260200190565b600085825260ff85166020830152836040830152608060608301526111d160808301846110e6565b9695505050505050565b60208082526026908201527f4f776e61626c653a206e6577206f776e657220697320746865207a65726f206160408201526564647265737360d01b606082015260800190565b6020808252601b908201527f536166654d6174683a206164646974696f6e206f766572666c6f770000000000604082015260600190565b60208082526026908201527f41646472657373206973206e6f7420726567697374657265642061732076616c60408201526534b230ba37b960d11b606082015260800190565b6020808252818101527f4f776e61626c653a2063616c6c6572206973206e6f7420746865206f776e6572604082015260600190565b60208082526031908201527f56616c696461746f7220646f6573206e6f742076616c69646174652074686973604082015270081ada5b99081bd988191bd8dd5b595b9d607a1b606082015260800190565b60208082526024908201527f5472616e7366657248656c7065723a205452414e534645525f46524f4d5f46416040820152631253115160e21b606082015260800190565b6020808252601b908201527f5061796d656e7420546f6b656e206973206e6f74207365742075700000000000604082015260600190565b6020808252818101527f43616e206e6f74207472616e736665722077697468206f70656e207175657565604082015260600190565b90815260200190565b60405181810167ffffffffffffffff811182821017156113fc57600080fd5b604052919050565b600067ffffffffffffffff82111561141a578081fd5b5060209081020190565b60005b8381101561143f578181015183820152602001611427565b8381111561144e576000848401525b5050505056fea2646970667358221220b14d4501a25eb59d55bfae27562e655f2c75f614de23fdea972a8f51373fc5ea64736f6c63430007000033",
    "sourcePath": "e:/Repositories/seborga/registry/smart-contracts/contracts/Validator.sol",
    "compiler": {
        "name": "solc",
        "version": "0.7.0+commit.9e61f92b"
    },
    "functionHashes": {
        "addDocumentType(bytes32)": "d0a2711b",
        "addDocumentTypes(bytes32[])": "aea60cb6",
        "askValidation(bytes32,string[],bytes32[],string,bytes32)": "ea7a5b4c",
        "documentPrices(bytes32)": "e5f760b9",
        "documentTypes(bytes32)": "445d1ce1",
        "owner()": "8da5cb5b",
        "paymentToken()": "3013ce29",
        "processValidation(uint8,string)": "f2ca8d17",
        "registry()": "7b103999",
        "removeDocumentType(bytes32)": "9b067cd6",
        "removeDocumentTypes(bytes32[])": "08ac7eca",
        "renounceOwnership()": "715018a6",
        "setDocumentPrice(bytes32,uint256)": "e75984b7",
        "setDocumentPrices(bytes32[],uint256[])": "74e87688",
        "setPaymentToken(address)": "6a326ab1",
        "transferOwnership(address)": "f2fde38b",
        "transferOwnershipValidator(address)": "64599faa",
        "validationQueue(uint256)": "6c3cdfdc",
        "validationQueueEnd()": "abe9e9e7",
        "validationQueueStart()": "8103229b"
    },
    "gasEstimates": {
        "creation": {
            "codeDepositCost": "1051600",
            "executionCost": "infinite",
            "totalCost": "infinite"
        },
        "external": {
            "addDocumentType(bytes32)": "22101",
            "addDocumentTypes(bytes32[])": "infinite",
            "askValidation(bytes32,string[],bytes32[],string,bytes32)": "infinite",
            "documentPrices(bytes32)": "1193",
            "documentTypes(bytes32)": "1251",
            "owner()": "1093",
            "paymentToken()": "1116",
            "processValidation(uint8,string)": "infinite",
            "registry()": "1159",
            "removeDocumentType(bytes32)": "22029",
            "removeDocumentTypes(bytes32[])": "infinite",
            "renounceOwnership()": "24249",
            "setDocumentPrice(bytes32,uint256)": "21239",
            "setDocumentPrices(bytes32[],uint256[])": "infinite",
            "setPaymentToken(address)": "22127",
            "transferOwnership(address)": "24514",
            "transferOwnershipValidator(address)": "26146",
            "validationQueue(uint256)": "infinite",
            "validationQueueEnd()": "1095",
            "validationQueueStart()": "1139"
        },
        "internal": {
            "processPayment(uint256)": "infinite"
        }
    }
}